{
  "_format": "hh-sol-artifact-1",
  "contractName": "NFTFactory",
  "sourceName": "contracts/NFTFactory.sol",
  "abi": [
    {
      "anonymous": false,
      "inputs": [
        {
          "indexed": true,
          "internalType": "address",
          "name": "creator",
          "type": "address"
        },
        {
          "indexed": true,
          "internalType": "address",
          "name": "collection",
          "type": "address"
        },
        {
          "indexed": false,
          "internalType": "string",
          "name": "name",
          "type": "string"
        },
        {
          "indexed": false,
          "internalType": "string",
          "name": "symbol",
          "type": "string"
        }
      ],
      "name": "CollectionCreated",
      "type": "event"
    },
    {
      "inputs": [
        {
          "internalType": "uint256",
          "name": "",
          "type": "uint256"
        }
      ],
      "name": "allCollections",
      "outputs": [
        {
          "internalType": "address",
          "name": "",
          "type": "address"
        }
      ],
      "stateMutability": "view",
      "type": "function"
    },
    {
      "inputs": [
        {
          "internalType": "string",
          "name": "name_",
          "type": "string"
        },
        {
          "internalType": "string",
          "name": "symbol_",
          "type": "string"
        }
      ],
      "name": "createCollection",
      "outputs": [
        {
          "internalType": "address",
          "name": "",
          "type": "address"
        }
      ],
      "stateMutability": "nonpayable",
      "type": "function"
    },
    {
      "inputs": [],
      "name": "getAllCollections",
      "outputs": [
        {
          "internalType": "address[]",
          "name": "",
          "type": "address[]"
        }
      ],
      "stateMutability": "view",
      "type": "function"
    },
    {
      "inputs": [
        {
          "internalType": "address",
          "name": "owner",
          "type": "address"
        }
      ],
      "name": "getCollectionsByOwner",
      "outputs": [
        {
          "internalType": "address[]",
          "name": "",
          "type": "address[]"
        }
      ],
      "stateMutability": "view",
      "type": "function"
    }
  ],
  "bytecode": "0x6080604052348015600f57600080fd5b506136538061001f6000396000f3fe608060405234801561001057600080fd5b506004361061004c5760003560e01c8063167ef49514610051578063176b9b75146100815780636804a958146100b1578063e178d60c146100cf575b600080fd5b61006b600480360381019061006691906104a5565b6100ff565b6040516100789190610513565b60405180910390f35b61009b60048036038101906100969190610674565b61013e565b6040516100a89190610513565b60405180910390f35b6100b96102f4565b6040516100c691906107aa565b60405180910390f35b6100e960048036038101906100e491906107f8565b610382565b6040516100f691906107aa565b60405180910390f35b6001818154811061010f57600080fd5b906000526020600020016000915054906101000a900473ffffffffffffffffffffffffffffffffffffffff1681565b6000808383336040516101509061044e565b61015c939291906108a4565b604051809103906000f080158015610178573d6000803e3d6000fd5b50905060008190506000803373ffffffffffffffffffffffffffffffffffffffff1673ffffffffffffffffffffffffffffffffffffffff168152602001908152602001600020819080600181540180825580915050600190039060005260206000200160009091909190916101000a81548173ffffffffffffffffffffffffffffffffffffffff021916908373ffffffffffffffffffffffffffffffffffffffff1602179055506001819080600181540180825580915050600190039060005260206000200160009091909190916101000a81548173ffffffffffffffffffffffffffffffffffffffff021916908373ffffffffffffffffffffffffffffffffffffffff1602179055508073ffffffffffffffffffffffffffffffffffffffff163373ffffffffffffffffffffffffffffffffffffffff167f5fead977881b23a0dbf2f905699203f29cefea57a576d2d4f412523191258e8487876040516102e19291906108e9565b60405180910390a3809250505092915050565b6060600180548060200260200160405190810160405280929190818152602001828054801561037857602002820191906000526020600020905b8160009054906101000a900473ffffffffffffffffffffffffffffffffffffffff1673ffffffffffffffffffffffffffffffffffffffff168152602001906001019080831161032e575b5050505050905090565b60606000808373ffffffffffffffffffffffffffffffffffffffff1673ffffffffffffffffffffffffffffffffffffffff16815260200190815260200160002080548060200260200160405190810160405280929190818152602001828054801561044257602002820191906000526020600020905b8160009054906101000a900473ffffffffffffffffffffffffffffffffffffffff1673ffffffffffffffffffffffffffffffffffffffff16815260200190600101908083116103f8575b50505050509050919050565b612cfd8061092183390190565b6000604051905090565b600080fd5b600080fd5b6000819050919050565b6104828161046f565b811461048d57600080fd5b50565b60008135905061049f81610479565b92915050565b6000602082840312156104bb576104ba610465565b5b60006104c984828501610490565b91505092915050565b600073ffffffffffffffffffffffffffffffffffffffff82169050919050565b60006104fd826104d2565b9050919050565b61050d816104f2565b82525050565b60006020820190506105286000830184610504565b92915050565b600080fd5b600080fd5b6000601f19601f8301169050919050565b7f4e487b7100000000000000000000000000000000000000000000000000000000600052604160045260246000fd5b61058182610538565b810181811067ffffffffffffffff821117156105a05761059f610549565b5b80604052505050565b60006105b361045b565b90506105bf8282610578565b919050565b600067ffffffffffffffff8211156105df576105de610549565b5b6105e882610538565b9050602081019050919050565b82818337600083830152505050565b6000610617610612846105c4565b6105a9565b90508281526020810184848401111561063357610632610533565b5b61063e8482856105f5565b509392505050565b600082601f83011261065b5761065a61052e565b5b813561066b848260208601610604565b91505092915050565b6000806040838503121561068b5761068a610465565b5b600083013567ffffffffffffffff8111156106a9576106a861046a565b5b6106b585828601610646565b925050602083013567ffffffffffffffff8111156106d6576106d561046a565b5b6106e285828601610646565b9150509250929050565b600081519050919050565b600082825260208201905092915050565b6000819050602082019050919050565b610721816104f2565b82525050565b60006107338383610718565b60208301905092915050565b6000602082019050919050565b6000610757826106ec565b61076181856106f7565b935061076c83610708565b8060005b8381101561079d5781516107848882610727565b975061078f8361073f565b925050600181019050610770565b5085935050505092915050565b600060208201905081810360008301526107c4818461074c565b905092915050565b6107d5816104f2565b81146107e057600080fd5b50565b6000813590506107f2816107cc565b92915050565b60006020828403121561080e5761080d610465565b5b600061081c848285016107e3565b91505092915050565b600081519050919050565b600082825260208201905092915050565b60005b8381101561085f578082015181840152602081019050610844565b60008484015250505050565b600061087682610825565b6108808185610830565b9350610890818560208601610841565b61089981610538565b840191505092915050565b600060608201905081810360008301526108be818661086b565b905081810360208301526108d2818561086b565b90506108e16040830184610504565b949350505050565b60006040820190508181036000830152610903818561086b565b90508181036020830152610917818461086b565b9050939250505056fe608060405234801561001057600080fd5b50604051612cfd380380612cfd83398181016040528101906100329190610272565b82828160009081610043919061051e565b508060019081610053919061051e565b50505080600760006101000a81548173ffffffffffffffffffffffffffffffffffffffff021916908373ffffffffffffffffffffffffffffffffffffffff1602179055505050506105f0565b6000604051905090565b600080fd5b600080fd5b600080fd5b600080fd5b6000601f19601f8301169050919050565b7f4e487b7100000000000000000000000000000000000000000000000000000000600052604160045260246000fd5b610106826100bd565b810181811067ffffffffffffffff82111715610125576101246100ce565b5b80604052505050565b600061013861009f565b905061014482826100fd565b919050565b600067ffffffffffffffff821115610164576101636100ce565b5b61016d826100bd565b9050602081019050919050565b60005b8381101561019857808201518184015260208101905061017d565b60008484015250505050565b60006101b76101b284610149565b61012e565b9050828152602081018484840111156101d3576101d26100b8565b5b6101de84828561017a565b509392505050565b600082601f8301126101fb576101fa6100b3565b5b815161020b8482602086016101a4565b91505092915050565b600073ffffffffffffffffffffffffffffffffffffffff82169050919050565b600061023f82610214565b9050919050565b61024f81610234565b811461025a57600080fd5b50565b60008151905061026c81610246565b92915050565b60008060006060848603121561028b5761028a6100a9565b5b600084015167ffffffffffffffff8111156102a9576102a86100ae565b5b6102b5868287016101e6565b935050602084015167ffffffffffffffff8111156102d6576102d56100ae565b5b6102e2868287016101e6565b92505060406102f38682870161025d565b9150509250925092565b600081519050919050565b7f4e487b7100000000000000000000000000000000000000000000000000000000600052602260045260246000fd5b6000600282049050600182168061034f57607f821691505b60208210810361036257610361610308565b5b50919050565b60008190508160005260206000209050919050565b60006020601f8301049050919050565b600082821b905092915050565b6000600883026103ca7fffffffffffffffffffffffffffffffffffffffffffffffffffffffffffffffff8261038d565b6103d4868361038d565b95508019841693508086168417925050509392505050565b6000819050919050565b6000819050919050565b600061041b610416610411846103ec565b6103f6565b6103ec565b9050919050565b6000819050919050565b61043583610400565b61044961044182610422565b84845461039a565b825550505050565b600090565b61045e610451565b61046981848461042c565b505050565b5b8181101561048d57610482600082610456565b60018101905061046f565b5050565b601f8211156104d2576104a381610368565b6104ac8461037d565b810160208510156104bb578190505b6104cf6104c78561037d565b83018261046e565b50505b505050565b600082821c905092915050565b60006104f5600019846008026104d7565b1980831691505092915050565b600061050e83836104e4565b9150826002028217905092915050565b610527826102fd565b67ffffffffffffffff8111156105405761053f6100ce565b5b61054a8254610337565b610555828285610491565b600060209050601f8311600181146105885760008415610576578287015190505b6105808582610502565b8655506105e8565b601f19841661059686610368565b60005b828110156105be57848901518255600182019150602085019450602081019050610599565b868310156105db57848901516105d7601f8916826104e4565b8355505b6001600288020188555050505b505050505050565b6126fe806105ff6000396000f3fe608060405234801561001057600080fd5b50600436106101005760003560e01c806370a0823111610097578063a22cb46511610066578063a22cb465146102c1578063b88d4fde146102dd578063c87b56dd146102f9578063e985e9c51461032957610100565b806370a082311461023757806375794a3c146102675780638da5cb5b1461028557806395d89b41146102a357610100565b806323b872dd116100d357806323b872dd1461019f57806342842e0e146101bb5780636352211e146101d75780636a6278421461020757610100565b806301ffc9a71461010557806306fdde0314610135578063081812fc14610153578063095ea7b314610183575b600080fd5b61011f600480360381019061011a9190611917565b610359565b60405161012c919061195f565b60405180910390f35b61013d61043b565b60405161014a9190611a0a565b60405180910390f35b61016d60048036038101906101689190611a62565b6104cd565b60405161017a9190611ad0565b60405180910390f35b61019d60048036038101906101989190611b17565b610513565b005b6101b960048036038101906101b49190611b57565b61062a565b005b6101d560048036038101906101d09190611b57565b61068a565b005b6101f160048036038101906101ec9190611a62565b6106aa565b6040516101fe9190611ad0565b60405180910390f35b610221600480360381019061021c9190611baa565b610730565b60405161022e9190611be6565b60405180910390f35b610251600480360381019061024c9190611baa565b6107f4565b60405161025e9190611be6565b60405180910390f35b61026f6108ab565b60405161027c9190611be6565b60405180910390f35b61028d6108b1565b60405161029a9190611ad0565b60405180910390f35b6102ab6108d7565b6040516102b89190611a0a565b60405180910390f35b6102db60048036038101906102d69190611c2d565b610969565b005b6102f760048036038101906102f29190611da2565b61097f565b005b610313600480360381019061030e9190611a62565b6109e1565b6040516103209190611a0a565b60405180910390f35b610343600480360381019061033e9190611e25565b610a49565b604051610350919061195f565b60405180910390f35b60007f80ac58cd000000000000000000000000000000000000000000000000000000007bffffffffffffffffffffffffffffffffffffffffffffffffffffffff1916827bffffffffffffffffffffffffffffffffffffffffffffffffffffffff1916148061042457507f5b5e139f000000000000000000000000000000000000000000000000000000007bffffffffffffffffffffffffffffffffffffffffffffffffffffffff1916827bffffffffffffffffffffffffffffffffffffffffffffffffffffffff1916145b80610434575061043382610add565b5b9050919050565b60606000805461044a90611e94565b80601f016020809104026020016040519081016040528092919081815260200182805461047690611e94565b80156104c35780601f10610498576101008083540402835291602001916104c3565b820191906000526020600020905b8154815290600101906020018083116104a657829003601f168201915b5050505050905090565b60006104d882610b47565b6004600083815260200190815260200160002060009054906101000a900473ffffffffffffffffffffffffffffffffffffffff169050919050565b600061051e826106aa565b90508073ffffffffffffffffffffffffffffffffffffffff168373ffffffffffffffffffffffffffffffffffffffff160361058e576040517f08c379a000000000000000000000000000000000000000000000000000000000815260040161058590611f37565b60405180910390fd5b8073ffffffffffffffffffffffffffffffffffffffff166105ad610b92565b73ffffffffffffffffffffffffffffffffffffffff1614806105dc57506105db816105d6610b92565b610a49565b5b61061b576040517f08c379a000000000000000000000000000000000000000000000000000000000815260040161061290611fc9565b60405180910390fd5b6106258383610b9a565b505050565b61063b610635610b92565b82610c53565b61067a576040517f08c379a00000000000000000000000000000000000000000000000000000000081526004016106719061205b565b60405180910390fd5b610685838383610ce8565b505050565b6106a58383836040518060200160405280600081525061097f565b505050565b6000806106b683610fe1565b9050600073ffffffffffffffffffffffffffffffffffffffff168173ffffffffffffffffffffffffffffffffffffffff1603610727576040517f08c379a000000000000000000000000000000000000000000000000000000000815260040161071e906120c7565b60405180910390fd5b80915050919050565b6000600760009054906101000a900473ffffffffffffffffffffffffffffffffffffffff1673ffffffffffffffffffffffffffffffffffffffff163373ffffffffffffffffffffffffffffffffffffffff16146107c2576040517f08c379a00000000000000000000000000000000000000000000000000000000081526004016107b990612133565b60405180910390fd5b600060065490506107d3838261101e565b600660008154809291906107e690612182565b919050555080915050919050565b60008073ffffffffffffffffffffffffffffffffffffffff168273ffffffffffffffffffffffffffffffffffffffff1603610864576040517f08c379a000000000000000000000000000000000000000000000000000000000815260040161085b9061223c565b60405180910390fd5b600360008373ffffffffffffffffffffffffffffffffffffffff1673ffffffffffffffffffffffffffffffffffffffff168152602001908152602001600020549050919050565b60065481565b600760009054906101000a900473ffffffffffffffffffffffffffffffffffffffff1681565b6060600180546108e690611e94565b80601f016020809104026020016040519081016040528092919081815260200182805461091290611e94565b801561095f5780601f106109345761010080835404028352916020019161095f565b820191906000526020600020905b81548152906001019060200180831161094257829003601f168201915b5050505050905090565b61097b610974610b92565b838361103c565b5050565b61099061098a610b92565b83610c53565b6109cf576040517f08c379a00000000000000000000000000000000000000000000000000000000081526004016109c69061205b565b60405180910390fd5b6109db848484846111a8565b50505050565b60606109ec82610b47565b60006109f6611204565b90506000815111610a165760405180602001604052806000815250610a41565b80610a208461121b565b604051602001610a31929190612298565b6040516020818303038152906040525b915050919050565b6000600560008473ffffffffffffffffffffffffffffffffffffffff1673ffffffffffffffffffffffffffffffffffffffff16815260200190815260200160002060008373ffffffffffffffffffffffffffffffffffffffff1673ffffffffffffffffffffffffffffffffffffffff16815260200190815260200160002060009054906101000a900460ff16905092915050565b60007f01ffc9a7000000000000000000000000000000000000000000000000000000007bffffffffffffffffffffffffffffffffffffffffffffffffffffffff1916827bffffffffffffffffffffffffffffffffffffffffffffffffffffffff1916149050919050565b610b50816112e9565b610b8f576040517f08c379a0000000000000000000000000000000000000000000000000000000008152600401610b86906120c7565b60405180910390fd5b50565b600033905090565b816004600083815260200190815260200160002060006101000a81548173ffffffffffffffffffffffffffffffffffffffff021916908373ffffffffffffffffffffffffffffffffffffffff160217905550808273ffffffffffffffffffffffffffffffffffffffff16610c0d836106aa565b73ffffffffffffffffffffffffffffffffffffffff167f8c5be1e5ebec7d5bd14f71427d1e84f3dd0314c0f7b2291e5b200ac8c7c3b92560405160405180910390a45050565b600080610c5f836106aa565b90508073ffffffffffffffffffffffffffffffffffffffff168473ffffffffffffffffffffffffffffffffffffffff161480610ca15750610ca08185610a49565b5b80610cdf57508373ffffffffffffffffffffffffffffffffffffffff16610cc7846104cd565b73ffffffffffffffffffffffffffffffffffffffff16145b91505092915050565b8273ffffffffffffffffffffffffffffffffffffffff16610d08826106aa565b73ffffffffffffffffffffffffffffffffffffffff1614610d5e576040517f08c379a0000000000000000000000000000000000000000000000000000000008152600401610d559061232e565b60405180910390fd5b600073ffffffffffffffffffffffffffffffffffffffff168273ffffffffffffffffffffffffffffffffffffffff1603610dcd576040517f08c379a0000000000000000000000000000000000000000000000000000000008152600401610dc4906123c0565b60405180910390fd5b610dda838383600161132a565b8273ffffffffffffffffffffffffffffffffffffffff16610dfa826106aa565b73ffffffffffffffffffffffffffffffffffffffff1614610e50576040517f08c379a0000000000000000000000000000000000000000000000000000000008152600401610e479061232e565b60405180910390fd5b6004600082815260200190815260200160002060006101000a81549073ffffffffffffffffffffffffffffffffffffffff02191690556001600360008573ffffffffffffffffffffffffffffffffffffffff1673ffffffffffffffffffffffffffffffffffffffff168152602001908152602001600020600082825403925050819055506001600360008473ffffffffffffffffffffffffffffffffffffffff1673ffffffffffffffffffffffffffffffffffffffff16815260200190815260200160002060008282540192505081905550816002600083815260200190815260200160002060006101000a81548173ffffffffffffffffffffffffffffffffffffffff021916908373ffffffffffffffffffffffffffffffffffffffff160217905550808273ffffffffffffffffffffffffffffffffffffffff168473ffffffffffffffffffffffffffffffffffffffff167fddf252ad1be2c89b69c2b068fc378daa952ba7f163c4a11628f55a4df523b3ef60405160405180910390a4610fdc8383836001611330565b505050565b60006002600083815260200190815260200160002060009054906101000a900473ffffffffffffffffffffffffffffffffffffffff169050919050565b611038828260405180602001604052806000815250611336565b5050565b8173ffffffffffffffffffffffffffffffffffffffff168373ffffffffffffffffffffffffffffffffffffffff16036110aa576040517f08c379a00000000000000000000000000000000000000000000000000000000081526004016110a19061242c565b60405180910390fd5b80600560008573ffffffffffffffffffffffffffffffffffffffff1673ffffffffffffffffffffffffffffffffffffffff16815260200190815260200160002060008473ffffffffffffffffffffffffffffffffffffffff1673ffffffffffffffffffffffffffffffffffffffff16815260200190815260200160002060006101000a81548160ff0219169083151502179055508173ffffffffffffffffffffffffffffffffffffffff168373ffffffffffffffffffffffffffffffffffffffff167f17307eab39ab6107e8899845ad3d59bd9653f200f220920489ca2b5937696c318360405161119b919061195f565b60405180910390a3505050565b6111b3848484610ce8565b6111bf84848484611391565b6111fe576040517f08c379a00000000000000000000000000000000000000000000000000000000081526004016111f5906124be565b60405180910390fd5b50505050565b606060405180602001604052806000815250905090565b60606000600161122a84611518565b01905060008167ffffffffffffffff81111561124957611248611c77565b5b6040519080825280601f01601f19166020018201604052801561127b5781602001600182028036833780820191505090505b509050600082602001820190505b6001156112de578080600190039150507f3031323334353637383961626364656600000000000000000000000000000000600a86061a8153600a85816112d2576112d16124de565b5b04945060008503611289575b819350505050919050565b60008073ffffffffffffffffffffffffffffffffffffffff1661130b83610fe1565b73ffffffffffffffffffffffffffffffffffffffff1614159050919050565b50505050565b50505050565b611340838361166b565b61134d6000848484611391565b61138c576040517f08c379a0000000000000000000000000000000000000000000000000000000008152600401611383906124be565b60405180910390fd5b505050565b60006113b28473ffffffffffffffffffffffffffffffffffffffff16611888565b1561150b578373ffffffffffffffffffffffffffffffffffffffff1663150b7a026113db610b92565b8786866040518563ffffffff1660e01b81526004016113fd9493929190612562565b6020604051808303816000875af192505050801561143957506040513d601f19601f8201168201806040525081019061143691906125c3565b60015b6114bb573d8060008114611469576040519150601f19603f3d011682016040523d82523d6000602084013e61146e565b606091505b5060008151036114b3576040517f08c379a00000000000000000000000000000000000000000000000000000000081526004016114aa906124be565b60405180910390fd5b805181602001fd5b63150b7a0260e01b7bffffffffffffffffffffffffffffffffffffffffffffffffffffffff1916817bffffffffffffffffffffffffffffffffffffffffffffffffffffffff191614915050611510565b600190505b949350505050565b600080600090507a184f03e93ff9f4daa797ed6e38ed64bf6a1f0100000000000000008310611576577a184f03e93ff9f4daa797ed6e38ed64bf6a1f010000000000000000838161156c5761156b6124de565b5b0492506040810190505b6d04ee2d6d415b85acef810000000083106115b3576d04ee2d6d415b85acef810000000083816115a9576115a86124de565b5b0492506020810190505b662386f26fc1000083106115e257662386f26fc1000083816115d8576115d76124de565b5b0492506010810190505b6305f5e100831061160b576305f5e1008381611601576116006124de565b5b0492506008810190505b6127108310611630576127108381611626576116256124de565b5b0492506004810190505b606483106116535760648381611649576116486124de565b5b0492506002810190505b600a8310611662576001810190505b80915050919050565b600073ffffffffffffffffffffffffffffffffffffffff168273ffffffffffffffffffffffffffffffffffffffff16036116da576040517f08c379a00000000000000000000000000000000000000000000000000000000081526004016116d19061263c565b60405180910390fd5b6116e3816112e9565b15611723576040517f08c379a000000000000000000000000000000000000000000000000000000000815260040161171a906126a8565b60405180910390fd5b61173160008383600161132a565b61173a816112e9565b1561177a576040517f08c379a0000000000000000000000000000000000000000000000000000000008152600401611771906126a8565b60405180910390fd5b6001600360008473ffffffffffffffffffffffffffffffffffffffff1673ffffffffffffffffffffffffffffffffffffffff16815260200190815260200160002060008282540192505081905550816002600083815260200190815260200160002060006101000a81548173ffffffffffffffffffffffffffffffffffffffff021916908373ffffffffffffffffffffffffffffffffffffffff160217905550808273ffffffffffffffffffffffffffffffffffffffff16600073ffffffffffffffffffffffffffffffffffffffff167fddf252ad1be2c89b69c2b068fc378daa952ba7f163c4a11628f55a4df523b3ef60405160405180910390a4611884600083836001611330565b5050565b6000808273ffffffffffffffffffffffffffffffffffffffff163b119050919050565b6000604051905090565b600080fd5b600080fd5b60007fffffffff0000000000000000000000000000000000000000000000000000000082169050919050565b6118f4816118bf565b81146118ff57600080fd5b50565b600081359050611911816118eb565b92915050565b60006020828403121561192d5761192c6118b5565b5b600061193b84828501611902565b91505092915050565b60008115159050919050565b61195981611944565b82525050565b60006020820190506119746000830184611950565b92915050565b600081519050919050565b600082825260208201905092915050565b60005b838110156119b4578082015181840152602081019050611999565b60008484015250505050565b6000601f19601f8301169050919050565b60006119dc8261197a565b6119e68185611985565b93506119f6818560208601611996565b6119ff816119c0565b840191505092915050565b60006020820190508181036000830152611a2481846119d1565b905092915050565b6000819050919050565b611a3f81611a2c565b8114611a4a57600080fd5b50565b600081359050611a5c81611a36565b92915050565b600060208284031215611a7857611a776118b5565b5b6000611a8684828501611a4d565b91505092915050565b600073ffffffffffffffffffffffffffffffffffffffff82169050919050565b6000611aba82611a8f565b9050919050565b611aca81611aaf565b82525050565b6000602082019050611ae56000830184611ac1565b92915050565b611af481611aaf565b8114611aff57600080fd5b50565b600081359050611b1181611aeb565b92915050565b60008060408385031215611b2e57611b2d6118b5565b5b6000611b3c85828601611b02565b9250506020611b4d85828601611a4d565b9150509250929050565b600080600060608486031215611b7057611b6f6118b5565b5b6000611b7e86828701611b02565b9350506020611b8f86828701611b02565b9250506040611ba086828701611a4d565b9150509250925092565b600060208284031215611bc057611bbf6118b5565b5b6000611bce84828501611b02565b91505092915050565b611be081611a2c565b82525050565b6000602082019050611bfb6000830184611bd7565b92915050565b611c0a81611944565b8114611c1557600080fd5b50565b600081359050611c2781611c01565b92915050565b60008060408385031215611c4457611c436118b5565b5b6000611c5285828601611b02565b9250506020611c6385828601611c18565b9150509250929050565b600080fd5b600080fd5b7f4e487b7100000000000000000000000000000000000000000000000000000000600052604160045260246000fd5b611caf826119c0565b810181811067ffffffffffffffff82111715611cce57611ccd611c77565b5b80604052505050565b6000611ce16118ab565b9050611ced8282611ca6565b919050565b600067ffffffffffffffff821115611d0d57611d0c611c77565b5b611d16826119c0565b9050602081019050919050565b82818337600083830152505050565b6000611d45611d4084611cf2565b611cd7565b905082815260208101848484011115611d6157611d60611c72565b5b611d6c848285611d23565b509392505050565b600082601f830112611d8957611d88611c6d565b5b8135611d99848260208601611d32565b91505092915050565b60008060008060808587031215611dbc57611dbb6118b5565b5b6000611dca87828801611b02565b9450506020611ddb87828801611b02565b9350506040611dec87828801611a4d565b925050606085013567ffffffffffffffff811115611e0d57611e0c6118ba565b5b611e1987828801611d74565b91505092959194509250565b60008060408385031215611e3c57611e3b6118b5565b5b6000611e4a85828601611b02565b9250506020611e5b85828601611b02565b9150509250929050565b7f4e487b7100000000000000000000000000000000000000000000000000000000600052602260045260246000fd5b60006002820490506001821680611eac57607f821691505b602082108103611ebf57611ebe611e65565b5b50919050565b7f4552433732313a20617070726f76616c20746f2063757272656e74206f776e6560008201527f7200000000000000000000000000000000000000000000000000000000000000602082015250565b6000611f21602183611985565b9150611f2c82611ec5565b604082019050919050565b60006020820190508181036000830152611f5081611f14565b9050919050565b7f4552433732313a20617070726f76652063616c6c6572206973206e6f7420746f60008201527f6b656e206f776e6572206f7220617070726f76656420666f7220616c6c000000602082015250565b6000611fb3603d83611985565b9150611fbe82611f57565b604082019050919050565b60006020820190508181036000830152611fe281611fa6565b9050919050565b7f4552433732313a2063616c6c6572206973206e6f7420746f6b656e206f776e6560008201527f72206f7220617070726f76656400000000000000000000000000000000000000602082015250565b6000612045602d83611985565b915061205082611fe9565b604082019050919050565b6000602082019050818103600083015261207481612038565b9050919050565b7f4552433732313a20696e76616c696420746f6b656e2049440000000000000000600082015250565b60006120b1601883611985565b91506120bc8261207b565b602082019050919050565b600060208201905081810360008301526120e0816120a4565b9050919050565b7f4f6e6c79206f776e657200000000000000000000000000000000000000000000600082015250565b600061211d600a83611985565b9150612128826120e7565b602082019050919050565b6000602082019050818103600083015261214c81612110565b9050919050565b7f4e487b7100000000000000000000000000000000000000000000000000000000600052601160045260246000fd5b600061218d82611a2c565b91507fffffffffffffffffffffffffffffffffffffffffffffffffffffffffffffffff82036121bf576121be612153565b5b600182019050919050565b7f4552433732313a2061646472657373207a65726f206973206e6f74206120766160008201527f6c6964206f776e65720000000000000000000000000000000000000000000000602082015250565b6000612226602983611985565b9150612231826121ca565b604082019050919050565b6000602082019050818103600083015261225581612219565b9050919050565b600081905092915050565b60006122728261197a565b61227c818561225c565b935061228c818560208601611996565b80840191505092915050565b60006122a48285612267565b91506122b08284612267565b91508190509392505050565b7f4552433732313a207472616e736665722066726f6d20696e636f72726563742060008201527f6f776e6572000000000000000000000000000000000000000000000000000000602082015250565b6000612318602583611985565b9150612323826122bc565b604082019050919050565b600060208201905081810360008301526123478161230b565b9050919050565b7f4552433732313a207472616e7366657220746f20746865207a65726f2061646460008201527f7265737300000000000000000000000000000000000000000000000000000000602082015250565b60006123aa602483611985565b91506123b58261234e565b604082019050919050565b600060208201905081810360008301526123d98161239d565b9050919050565b7f4552433732313a20617070726f766520746f2063616c6c657200000000000000600082015250565b6000612416601983611985565b9150612421826123e0565b602082019050919050565b6000602082019050818103600083015261244581612409565b9050919050565b7f4552433732313a207472616e7366657220746f206e6f6e20455243373231526560008201527f63656976657220696d706c656d656e7465720000000000000000000000000000602082015250565b60006124a8603283611985565b91506124b38261244c565b604082019050919050565b600060208201905081810360008301526124d78161249b565b9050919050565b7f4e487b7100000000000000000000000000000000000000000000000000000000600052601260045260246000fd5b600081519050919050565b600082825260208201905092915050565b60006125348261250d565b61253e8185612518565b935061254e818560208601611996565b612557816119c0565b840191505092915050565b60006080820190506125776000830187611ac1565b6125846020830186611ac1565b6125916040830185611bd7565b81810360608301526125a38184612529565b905095945050505050565b6000815190506125bd816118eb565b92915050565b6000602082840312156125d9576125d86118b5565b5b60006125e7848285016125ae565b91505092915050565b7f4552433732313a206d696e7420746f20746865207a65726f2061646472657373600082015250565b6000612626602083611985565b9150612631826125f0565b602082019050919050565b6000602082019050818103600083015261265581612619565b9050919050565b7f4552433732313a20746f6b656e20616c7265616479206d696e74656400000000600082015250565b6000612692601c83611985565b915061269d8261265c565b602082019050919050565b600060208201905081810360008301526126c181612685565b905091905056fea26469706673582212201a54e81d036a15c9c95383653eb6f1c4951baaf0016c11d09bfbe1c13c7482d564736f6c634300081e0033a26469706673582212208b31f6ad24eba753ef97fa4b6accf035b31ff162ab15cbb45e4179660d25d0ac64736f6c634300081e0033",
  "linkReferences": {},
  "deployedLinkReferences": {}
}